{
  "_format": "hh-sol-artifact-1",
  "contractName": "DegenToken",
  "sourceName": "contracts/DegenToken.sol",
  "abi": [
    {
      "inputs": [],
      "stateMutability": "nonpayable",
      "type": "constructor"
    },
    {
      "anonymous": false,
      "inputs": [
        {
          "indexed": true,
          "internalType": "address",
          "name": "owner",
          "type": "address"
        },
        {
          "indexed": true,
          "internalType": "address",
          "name": "spender",
          "type": "address"
        },
        {
          "indexed": false,
          "internalType": "uint256",
          "name": "value",
          "type": "uint256"
        }
      ],
      "name": "Approval",
      "type": "event"
    },
    {
      "anonymous": false,
      "inputs": [
        {
          "indexed": true,
          "internalType": "address",
          "name": "previousOwner",
          "type": "address"
        },
        {
          "indexed": true,
          "internalType": "address",
          "name": "newOwner",
          "type": "address"
        }
      ],
      "name": "OwnershipTransferred",
      "type": "event"
    },
    {
      "anonymous": false,
      "inputs": [
        {
          "indexed": true,
          "internalType": "address",
          "name": "from",
          "type": "address"
        },
        {
          "indexed": true,
          "internalType": "address",
          "name": "to",
          "type": "address"
        },
        {
          "indexed": false,
          "internalType": "uint256",
          "name": "value",
          "type": "uint256"
        }
      ],
      "name": "Transfer",
      "type": "event"
    },
    {
      "inputs": [
        {
          "internalType": "address",
          "name": "owner",
          "type": "address"
        },
        {
          "internalType": "address",
          "name": "spender",
          "type": "address"
        }
      ],
      "name": "allowance",
      "outputs": [
        {
          "internalType": "uint256",
          "name": "",
          "type": "uint256"
        }
      ],
      "stateMutability": "view",
      "type": "function"
    },
    {
      "inputs": [
        {
          "internalType": "address",
          "name": "spender",
          "type": "address"
        },
        {
          "internalType": "uint256",
          "name": "amount",
          "type": "uint256"
        }
      ],
      "name": "approve",
      "outputs": [
        {
          "internalType": "bool",
          "name": "",
          "type": "bool"
        }
      ],
      "stateMutability": "nonpayable",
      "type": "function"
    },
    {
      "inputs": [
        {
          "internalType": "address",
          "name": "account",
          "type": "address"
        }
      ],
      "name": "balanceOf",
      "outputs": [
        {
          "internalType": "uint256",
          "name": "",
          "type": "uint256"
        }
      ],
      "stateMutability": "view",
      "type": "function"
    },
    {
      "inputs": [
        {
          "internalType": "uint256",
          "name": "amount",
          "type": "uint256"
        }
      ],
      "name": "burn",
      "outputs": [],
      "stateMutability": "nonpayable",
      "type": "function"
    },
    {
      "inputs": [
        {
          "internalType": "string",
          "name": "_name",
          "type": "string"
        }
      ],
      "name": "createItems",
      "outputs": [],
      "stateMutability": "nonpayable",
      "type": "function"
    },
    {
      "inputs": [],
      "name": "decimals",
      "outputs": [
        {
          "internalType": "uint8",
          "name": "",
          "type": "uint8"
        }
      ],
      "stateMutability": "view",
      "type": "function"
    },
    {
      "inputs": [
        {
          "internalType": "address",
          "name": "spender",
          "type": "address"
        },
        {
          "internalType": "uint256",
          "name": "subtractedValue",
          "type": "uint256"
        }
      ],
      "name": "decreaseAllowance",
      "outputs": [
        {
          "internalType": "bool",
          "name": "",
          "type": "bool"
        }
      ],
      "stateMutability": "nonpayable",
      "type": "function"
    },
    {
      "inputs": [
        {
          "internalType": "address",
          "name": "spender",
          "type": "address"
        },
        {
          "internalType": "uint256",
          "name": "addedValue",
          "type": "uint256"
        }
      ],
      "name": "increaseAllowance",
      "outputs": [
        {
          "internalType": "bool",
          "name": "",
          "type": "bool"
        }
      ],
      "stateMutability": "nonpayable",
      "type": "function"
    },
    {
      "inputs": [
        {
          "internalType": "uint256",
          "name": "",
          "type": "uint256"
        }
      ],
      "name": "mapItem",
      "outputs": [
        {
          "internalType": "uint256",
          "name": "ItemId",
          "type": "uint256"
        },
        {
          "internalType": "string",
          "name": "Name",
          "type": "string"
        },
        {
          "internalType": "address",
          "name": "ItemOwner",
          "type": "address"
        }
      ],
      "stateMutability": "view",
      "type": "function"
    },
    {
      "inputs": [
        {
          "internalType": "address",
          "name": "to",
          "type": "address"
        },
        {
          "internalType": "uint256",
          "name": "amount",
          "type": "uint256"
        }
      ],
      "name": "mint",
      "outputs": [],
      "stateMutability": "nonpayable",
      "type": "function"
    },
    {
      "inputs": [],
      "name": "name",
      "outputs": [
        {
          "internalType": "string",
          "name": "",
          "type": "string"
        }
      ],
      "stateMutability": "view",
      "type": "function"
    },
    {
      "inputs": [],
      "name": "owner",
      "outputs": [
        {
          "internalType": "address",
          "name": "",
          "type": "address"
        }
      ],
      "stateMutability": "view",
      "type": "function"
    },
    {
      "inputs": [
        {
          "internalType": "uint256",
          "name": "_id",
          "type": "uint256"
        },
        {
          "internalType": "uint256",
          "name": "amount",
          "type": "uint256"
        }
      ],
      "name": "redeem",
      "outputs": [],
      "stateMutability": "nonpayable",
      "type": "function"
    },
    {
      "inputs": [],
      "name": "renounceOwnership",
      "outputs": [],
      "stateMutability": "nonpayable",
      "type": "function"
    },
    {
      "inputs": [],
      "name": "symbol",
      "outputs": [
        {
          "internalType": "string",
          "name": "",
          "type": "string"
        }
      ],
      "stateMutability": "view",
      "type": "function"
    },
    {
      "inputs": [],
      "name": "totalSupply",
      "outputs": [
        {
          "internalType": "uint256",
          "name": "",
          "type": "uint256"
        }
      ],
      "stateMutability": "view",
      "type": "function"
    },
    {
      "inputs": [
        {
          "internalType": "address",
          "name": "to",
          "type": "address"
        },
        {
          "internalType": "uint256",
          "name": "amount",
          "type": "uint256"
        }
      ],
      "name": "transfer",
      "outputs": [
        {
          "internalType": "bool",
          "name": "",
          "type": "bool"
        }
      ],
      "stateMutability": "nonpayable",
      "type": "function"
    },
    {
      "inputs": [
        {
          "internalType": "address",
          "name": "from",
          "type": "address"
        },
        {
          "internalType": "address",
          "name": "to",
          "type": "address"
        },
        {
          "internalType": "uint256",
          "name": "amount",
          "type": "uint256"
        }
      ],
      "name": "transferFrom",
      "outputs": [
        {
          "internalType": "bool",
          "name": "",
          "type": "bool"
        }
      ],
      "stateMutability": "nonpayable",
      "type": "function"
    },
    {
      "inputs": [
        {
          "internalType": "address",
          "name": "newOwner",
          "type": "address"
        }
      ],
      "name": "transferOwnership",
      "outputs": [],
      "stateMutability": "nonpayable",
      "type": "function"
    }
  ],
  "bytecode": "0x60806040523480156200001157600080fd5b506040518060400160405280600581526020017f446567656e0000000000000000000000000000000000000000000000000000008152506040518060400160405280600381526020017f44474e000000000000000000000000000000000000000000000000000000000081525081600390816200008f919062000412565b508060049081620000a1919062000412565b505050620000c4620000b8620000ca60201b60201c565b620000d260201b60201c565b620004f9565b600033905090565b6000600560009054906101000a900473ffffffffffffffffffffffffffffffffffffffff16905081600560006101000a81548173ffffffffffffffffffffffffffffffffffffffff021916908373ffffffffffffffffffffffffffffffffffffffff1602179055508173ffffffffffffffffffffffffffffffffffffffff168173ffffffffffffffffffffffffffffffffffffffff167f8be0079c531659141344cd1fd0a4f28419497f9722a3daafe3b4186f6b6457e060405160405180910390a35050565b600081519050919050565b7f4e487b7100000000000000000000000000000000000000000000000000000000600052604160045260246000fd5b7f4e487b7100000000000000000000000000000000000000000000000000000000600052602260045260246000fd5b600060028204905060018216806200021a57607f821691505b60208210810362000230576200022f620001d2565b5b50919050565b60008190508160005260206000209050919050565b60006020601f8301049050919050565b600082821b905092915050565b6000600883026200029a7fffffffffffffffffffffffffffffffffffffffffffffffffffffffffffffffff826200025b565b620002a686836200025b565b95508019841693508086168417925050509392505050565b6000819050919050565b6000819050919050565b6000620002f3620002ed620002e784620002be565b620002c8565b620002be565b9050919050565b6000819050919050565b6200030f83620002d2565b620003276200031e82620002fa565b84845462000268565b825550505050565b600090565b6200033e6200032f565b6200034b81848462000304565b505050565b5b8181101562000373576200036760008262000334565b60018101905062000351565b5050565b601f821115620003c2576200038c8162000236565b62000397846200024b565b81016020851015620003a7578190505b620003bf620003b6856200024b565b83018262000350565b50505b505050565b600082821c905092915050565b6000620003e760001984600802620003c7565b1980831691505092915050565b6000620004028383620003d4565b9150826002028217905092915050565b6200041d8262000198565b67ffffffffffffffff811115620004395762000438620001a3565b5b62000445825462000201565b6200045282828562000377565b600060209050601f8311600181146200048a576000841562000475578287015190505b620004818582620003f4565b865550620004f1565b601f1984166200049a8662000236565b60005b82811015620004c4578489015182556001820191506020850194506020810190506200049d565b86831015620004e45784890151620004e0601f891682620003d4565b8355505b6001600288020188555050505b505050505050565b61228b80620005096000396000f3fe608060405234801561001057600080fd5b50600436106101215760003560e01c806370a08231116100ad57806395d89b411161007157806395d89b411461030a578063a457c2d714610328578063a9059cbb14610358578063dd62ed3e14610388578063f2fde38b146103b857610121565b806370a082311461027a578063715018a6146102aa5780637cbc2373146102b4578063808cc300146102d05780638da5cb5b146102ec57610121565b806323b872dd116100f457806323b872dd146101c4578063313ce567146101f4578063395093511461021257806340c10f191461024257806342966c681461025e57610121565b806306fdde0314610126578063095ea7b31461014457806318160ddd146101745780631a96da3114610192575b600080fd5b61012e6103d4565b60405161013b91906113b2565b60405180910390f35b61015e6004803603810190610159919061147c565b610466565b60405161016b91906114d7565b60405180910390f35b61017c610489565b6040516101899190611501565b60405180910390f35b6101ac60048036038101906101a7919061151c565b610493565b6040516101bb93929190611558565b60405180910390f35b6101de60048036038101906101d99190611596565b610565565b6040516101eb91906114d7565b60405180910390f35b6101fc610594565b6040516102099190611605565b60405180910390f35b61022c6004803603810190610227919061147c565b61059d565b60405161023991906114d7565b60405180910390f35b61025c6004803603810190610257919061147c565b6105d4565b005b6102786004803603810190610273919061151c565b6105ea565b005b610294600480360381019061028f9190611620565b6105f7565b6040516102a19190611501565b60405180910390f35b6102b261063f565b005b6102ce60048036038101906102c9919061164d565b610653565b005b6102ea60048036038101906102e591906117c2565b6106e1565b005b6102f461077e565b604051610301919061180b565b60405180910390f35b6103126107a8565b60405161031f91906113b2565b60405180910390f35b610342600480360381019061033d919061147c565b61083a565b60405161034f91906114d7565b60405180910390f35b610372600480360381019061036d919061147c565b6108b1565b60405161037f91906114d7565b60405180910390f35b6103a2600480360381019061039d9190611826565b6108d4565b6040516103af9190611501565b60405180910390f35b6103d260048036038101906103cd9190611620565b61095b565b005b6060600380546103e390611895565b80601f016020809104026020016040519081016040528092919081815260200182805461040f90611895565b801561045c5780601f106104315761010080835404028352916020019161045c565b820191906000526020600020905b81548152906001019060200180831161043f57829003601f168201915b5050505050905090565b6000806104716109de565b905061047e8185856109e6565b600191505092915050565b6000600254905090565b60066020528060005260406000206000915090508060000154908060010180546104bc90611895565b80601f01602080910402602001604051908101604052809291908181526020018280546104e890611895565b80156105355780601f1061050a57610100808354040283529160200191610535565b820191906000526020600020905b81548152906001019060200180831161051857829003601f168201915b5050505050908060020160009054906101000a900473ffffffffffffffffffffffffffffffffffffffff16905083565b6000806105706109de565b905061057d858285610baf565b610588858585610c3b565b60019150509392505050565b60006012905090565b6000806105a86109de565b90506105c98185856105ba85896108d4565b6105c491906118f5565b6109e6565b600191505092915050565b6105dc610eb1565b6105e68282610f2f565b5050565b6105f43382611085565b50565b60008060008373ffffffffffffffffffffffffffffffffffffffff1673ffffffffffffffffffffffffffffffffffffffff168152602001908152602001600020549050919050565b610647610eb1565b6106516000611252565b565b60006006600084815260200190815260200160002090506106988160020160009054906101000a900473ffffffffffffffffffffffffffffffffffffffff16836108b1565b50338160020160006101000a81548173ffffffffffffffffffffffffffffffffffffffff021916908373ffffffffffffffffffffffffffffffffffffffff160217905550505050565b6106e9610eb1565b600760008154809291906106fc90611929565b9190505550600060066000600754815260200190815260200160002090506007548160000181905550818160010190816107369190611b1d565b50338160020160006101000a81548173ffffffffffffffffffffffffffffffffffffffff021916908373ffffffffffffffffffffffffffffffffffffffff1602179055505050565b6000600560009054906101000a900473ffffffffffffffffffffffffffffffffffffffff16905090565b6060600480546107b790611895565b80601f01602080910402602001604051908101604052809291908181526020018280546107e390611895565b80156108305780601f1061080557610100808354040283529160200191610830565b820191906000526020600020905b81548152906001019060200180831161081357829003601f168201915b5050505050905090565b6000806108456109de565b9050600061085382866108d4565b905083811015610898576040517f08c379a000000000000000000000000000000000000000000000000000000000815260040161088f90611c61565b60405180910390fd5b6108a582868684036109e6565b60019250505092915050565b6000806108bc6109de565b90506108c9818585610c3b565b600191505092915050565b6000600160008473ffffffffffffffffffffffffffffffffffffffff1673ffffffffffffffffffffffffffffffffffffffff16815260200190815260200160002060008373ffffffffffffffffffffffffffffffffffffffff1673ffffffffffffffffffffffffffffffffffffffff16815260200190815260200160002054905092915050565b610963610eb1565b600073ffffffffffffffffffffffffffffffffffffffff168173ffffffffffffffffffffffffffffffffffffffff16036109d2576040517f08c379a00000000000000000000000000000000000000000000000000000000081526004016109c990611cf3565b60405180910390fd5b6109db81611252565b50565b600033905090565b600073ffffffffffffffffffffffffffffffffffffffff168373ffffffffffffffffffffffffffffffffffffffff1603610a55576040517f08c379a0000000000000000000000000000000000000000000000000000000008152600401610a4c90611d85565b60405180910390fd5b600073ffffffffffffffffffffffffffffffffffffffff168273ffffffffffffffffffffffffffffffffffffffff1603610ac4576040517f08c379a0000000000000000000000000000000000000000000000000000000008152600401610abb90611e17565b60405180910390fd5b80600160008573ffffffffffffffffffffffffffffffffffffffff1673ffffffffffffffffffffffffffffffffffffffff16815260200190815260200160002060008473ffffffffffffffffffffffffffffffffffffffff1673ffffffffffffffffffffffffffffffffffffffff168152602001908152602001600020819055508173ffffffffffffffffffffffffffffffffffffffff168373ffffffffffffffffffffffffffffffffffffffff167f8c5be1e5ebec7d5bd14f71427d1e84f3dd0314c0f7b2291e5b200ac8c7c3b92583604051610ba29190611501565b60405180910390a3505050565b6000610bbb84846108d4565b90507fffffffffffffffffffffffffffffffffffffffffffffffffffffffffffffffff8114610c355781811015610c27576040517f08c379a0000000000000000000000000000000000000000000000000000000008152600401610c1e90611e83565b60405180910390fd5b610c3484848484036109e6565b5b50505050565b600073ffffffffffffffffffffffffffffffffffffffff168373ffffffffffffffffffffffffffffffffffffffff1603610caa576040517f08c379a0000000000000000000000000000000000000000000000000000000008152600401610ca190611f15565b60405180910390fd5b600073ffffffffffffffffffffffffffffffffffffffff168273ffffffffffffffffffffffffffffffffffffffff1603610d19576040517f08c379a0000000000000000000000000000000000000000000000000000000008152600401610d1090611fa7565b60405180910390fd5b610d24838383611318565b60008060008573ffffffffffffffffffffffffffffffffffffffff1673ffffffffffffffffffffffffffffffffffffffff16815260200190815260200160002054905081811015610daa576040517f08c379a0000000000000000000000000000000000000000000000000000000008152600401610da190612039565b60405180910390fd5b8181036000808673ffffffffffffffffffffffffffffffffffffffff1673ffffffffffffffffffffffffffffffffffffffff16815260200190815260200160002081905550816000808573ffffffffffffffffffffffffffffffffffffffff1673ffffffffffffffffffffffffffffffffffffffff168152602001908152602001600020600082825401925050819055508273ffffffffffffffffffffffffffffffffffffffff168473ffffffffffffffffffffffffffffffffffffffff167fddf252ad1be2c89b69c2b068fc378daa952ba7f163c4a11628f55a4df523b3ef84604051610e989190611501565b60405180910390a3610eab84848461131d565b50505050565b610eb96109de565b73ffffffffffffffffffffffffffffffffffffffff16610ed761077e565b73ffffffffffffffffffffffffffffffffffffffff1614610f2d576040517f08c379a0000000000000000000000000000000000000000000000000000000008152600401610f24906120a5565b60405180910390fd5b565b600073ffffffffffffffffffffffffffffffffffffffff168273ffffffffffffffffffffffffffffffffffffffff1603610f9e576040517f08c379a0000000000000000000000000000000000000000000000000000000008152600401610f9590612111565b60405180910390fd5b610faa60008383611318565b8060026000828254610fbc91906118f5565b92505081905550806000808473ffffffffffffffffffffffffffffffffffffffff1673ffffffffffffffffffffffffffffffffffffffff168152602001908152602001600020600082825401925050819055508173ffffffffffffffffffffffffffffffffffffffff16600073ffffffffffffffffffffffffffffffffffffffff167fddf252ad1be2c89b69c2b068fc378daa952ba7f163c4a11628f55a4df523b3ef8360405161106d9190611501565b60405180910390a36110816000838361131d565b5050565b600073ffffffffffffffffffffffffffffffffffffffff168273ffffffffffffffffffffffffffffffffffffffff16036110f4576040517f08c379a00000000000000000000000000000000000000000000000000000000081526004016110eb906121a3565b60405180910390fd5b61110082600083611318565b60008060008473ffffffffffffffffffffffffffffffffffffffff1673ffffffffffffffffffffffffffffffffffffffff16815260200190815260200160002054905081811015611186576040517f08c379a000000000000000000000000000000000000000000000000000000000815260040161117d90612235565b60405180910390fd5b8181036000808573ffffffffffffffffffffffffffffffffffffffff1673ffffffffffffffffffffffffffffffffffffffff1681526020019081526020016000208190555081600260008282540392505081905550600073ffffffffffffffffffffffffffffffffffffffff168373ffffffffffffffffffffffffffffffffffffffff167fddf252ad1be2c89b69c2b068fc378daa952ba7f163c4a11628f55a4df523b3ef846040516112399190611501565b60405180910390a361124d8360008461131d565b505050565b6000600560009054906101000a900473ffffffffffffffffffffffffffffffffffffffff16905081600560006101000a81548173ffffffffffffffffffffffffffffffffffffffff021916908373ffffffffffffffffffffffffffffffffffffffff1602179055508173ffffffffffffffffffffffffffffffffffffffff168173ffffffffffffffffffffffffffffffffffffffff167f8be0079c531659141344cd1fd0a4f28419497f9722a3daafe3b4186f6b6457e060405160405180910390a35050565b505050565b505050565b600081519050919050565b600082825260208201905092915050565b60005b8381101561135c578082015181840152602081019050611341565b60008484015250505050565b6000601f19601f8301169050919050565b600061138482611322565b61138e818561132d565b935061139e81856020860161133e565b6113a781611368565b840191505092915050565b600060208201905081810360008301526113cc8184611379565b905092915050565b6000604051905090565b600080fd5b600080fd5b600073ffffffffffffffffffffffffffffffffffffffff82169050919050565b6000611413826113e8565b9050919050565b61142381611408565b811461142e57600080fd5b50565b6000813590506114408161141a565b92915050565b6000819050919050565b61145981611446565b811461146457600080fd5b50565b60008135905061147681611450565b92915050565b60008060408385031215611493576114926113de565b5b60006114a185828601611431565b92505060206114b285828601611467565b9150509250929050565b60008115159050919050565b6114d1816114bc565b82525050565b60006020820190506114ec60008301846114c8565b92915050565b6114fb81611446565b82525050565b600060208201905061151660008301846114f2565b92915050565b600060208284031215611532576115316113de565b5b600061154084828501611467565b91505092915050565b61155281611408565b82525050565b600060608201905061156d60008301866114f2565b818103602083015261157f8185611379565b905061158e6040830184611549565b949350505050565b6000806000606084860312156115af576115ae6113de565b5b60006115bd86828701611431565b93505060206115ce86828701611431565b92505060406115df86828701611467565b9150509250925092565b600060ff82169050919050565b6115ff816115e9565b82525050565b600060208201905061161a60008301846115f6565b92915050565b600060208284031215611636576116356113de565b5b600061164484828501611431565b91505092915050565b60008060408385031215611664576116636113de565b5b600061167285828601611467565b925050602061168385828601611467565b9150509250929050565b600080fd5b600080fd5b7f4e487b7100000000000000000000000000000000000000000000000000000000600052604160045260246000fd5b6116cf82611368565b810181811067ffffffffffffffff821117156116ee576116ed611697565b5b80604052505050565b60006117016113d4565b905061170d82826116c6565b919050565b600067ffffffffffffffff82111561172d5761172c611697565b5b61173682611368565b9050602081019050919050565b82818337600083830152505050565b600061176561176084611712565b6116f7565b90508281526020810184848401111561178157611780611692565b5b61178c848285611743565b509392505050565b600082601f8301126117a9576117a861168d565b5b81356117b9848260208601611752565b91505092915050565b6000602082840312156117d8576117d76113de565b5b600082013567ffffffffffffffff8111156117f6576117f56113e3565b5b61180284828501611794565b91505092915050565b60006020820190506118206000830184611549565b92915050565b6000806040838503121561183d5761183c6113de565b5b600061184b85828601611431565b925050602061185c85828601611431565b9150509250929050565b7f4e487b7100000000000000000000000000000000000000000000000000000000600052602260045260246000fd5b600060028204905060018216806118ad57607f821691505b6020821081036118c0576118bf611866565b5b50919050565b7f4e487b7100000000000000000000000000000000000000000000000000000000600052601160045260246000fd5b600061190082611446565b915061190b83611446565b9250828201905080821115611923576119226118c6565b5b92915050565b600061193482611446565b91507fffffffffffffffffffffffffffffffffffffffffffffffffffffffffffffffff8203611966576119656118c6565b5b600182019050919050565b60008190508160005260206000209050919050565b60006020601f8301049050919050565b600082821b905092915050565b6000600883026119d37fffffffffffffffffffffffffffffffffffffffffffffffffffffffffffffffff82611996565b6119dd8683611996565b95508019841693508086168417925050509392505050565b6000819050919050565b6000611a1a611a15611a1084611446565b6119f5565b611446565b9050919050565b6000819050919050565b611a34836119ff565b611a48611a4082611a21565b8484546119a3565b825550505050565b600090565b611a5d611a50565b611a68818484611a2b565b505050565b5b81811015611a8c57611a81600082611a55565b600181019050611a6e565b5050565b601f821115611ad157611aa281611971565b611aab84611986565b81016020851015611aba578190505b611ace611ac685611986565b830182611a6d565b50505b505050565b600082821c905092915050565b6000611af460001984600802611ad6565b1980831691505092915050565b6000611b0d8383611ae3565b9150826002028217905092915050565b611b2682611322565b67ffffffffffffffff811115611b3f57611b3e611697565b5b611b498254611895565b611b54828285611a90565b600060209050601f831160018114611b875760008415611b75578287015190505b611b7f8582611b01565b865550611be7565b601f198416611b9586611971565b60005b82811015611bbd57848901518255600182019150602085019450602081019050611b98565b86831015611bda5784890151611bd6601f891682611ae3565b8355505b6001600288020188555050505b505050505050565b7f45524332303a2064656372656173656420616c6c6f77616e63652062656c6f7760008201527f207a65726f000000000000000000000000000000000000000000000000000000602082015250565b6000611c4b60258361132d565b9150611c5682611bef565b604082019050919050565b60006020820190508181036000830152611c7a81611c3e565b9050919050565b7f4f776e61626c653a206e6577206f776e657220697320746865207a65726f206160008201527f6464726573730000000000000000000000000000000000000000000000000000602082015250565b6000611cdd60268361132d565b9150611ce882611c81565b604082019050919050565b60006020820190508181036000830152611d0c81611cd0565b9050919050565b7f45524332303a20617070726f76652066726f6d20746865207a65726f2061646460008201527f7265737300000000000000000000000000000000000000000000000000000000602082015250565b6000611d6f60248361132d565b9150611d7a82611d13565b604082019050919050565b60006020820190508181036000830152611d9e81611d62565b9050919050565b7f45524332303a20617070726f766520746f20746865207a65726f20616464726560008201527f7373000000000000000000000000000000000000000000000000000000000000602082015250565b6000611e0160228361132d565b9150611e0c82611da5565b604082019050919050565b60006020820190508181036000830152611e3081611df4565b9050919050565b7f45524332303a20696e73756666696369656e7420616c6c6f77616e6365000000600082015250565b6000611e6d601d8361132d565b9150611e7882611e37565b602082019050919050565b60006020820190508181036000830152611e9c81611e60565b9050919050565b7f45524332303a207472616e736665722066726f6d20746865207a65726f20616460008201527f6472657373000000000000000000000000000000000000000000000000000000602082015250565b6000611eff60258361132d565b9150611f0a82611ea3565b604082019050919050565b60006020820190508181036000830152611f2e81611ef2565b9050919050565b7f45524332303a207472616e7366657220746f20746865207a65726f206164647260008201527f6573730000000000000000000000000000000000000000000000000000000000602082015250565b6000611f9160238361132d565b9150611f9c82611f35565b604082019050919050565b60006020820190508181036000830152611fc081611f84565b9050919050565b7f45524332303a207472616e7366657220616d6f756e742065786365656473206260008201527f616c616e63650000000000000000000000000000000000000000000000000000602082015250565b600061202360268361132d565b915061202e82611fc7565b604082019050919050565b6000602082019050818103600083015261205281612016565b9050919050565b7f4f776e61626c653a2063616c6c6572206973206e6f7420746865206f776e6572600082015250565b600061208f60208361132d565b915061209a82612059565b602082019050919050565b600060208201905081810360008301526120be81612082565b9050919050565b7f45524332303a206d696e7420746f20746865207a65726f206164647265737300600082015250565b60006120fb601f8361132d565b9150612106826120c5565b602082019050919050565b6000602082019050818103600083015261212a816120ee565b9050919050565b7f45524332303a206275726e2066726f6d20746865207a65726f2061646472657360008201527f7300000000000000000000000000000000000000000000000000000000000000602082015250565b600061218d60218361132d565b915061219882612131565b604082019050919050565b600060208201905081810360008301526121bc81612180565b9050919050565b7f45524332303a206275726e20616d6f756e7420657863656564732062616c616e60008201527f6365000000000000000000000000000000000000000000000000000000000000602082015250565b600061221f60228361132d565b915061222a826121c3565b604082019050919050565b6000602082019050818103600083015261224e81612212565b905091905056fea2646970667358221220bdebeb083f38e924b4d0d318cf2f0f7ab1d96eed8c4b207147185a96a888ac6b64736f6c63430008120033",
  "linkReferences": {},
  "deployedLinkReferences": {}
}